:020000040000FA
:020000000528D1
:0800080012288316FD3085006B
:10001000BF308600831290308B0085143420851009
:1000200034200D288312851005308E0032308D006B
:100030007D308C00831206173E2006133E208C0B69
:100040001A288D0B182832308D007D308C00061355
:100050003E2006133E208C0B27288D0B25288E0B67
:10006000162890308B0009003D3081000630831641
:1000700081000B1D39280B1183120800DC30810030
:100080000030831681000B1D43280B1183120800DA
:00000001FF
