:020000040000FA
:020000000528D1
:08000800122883161730850051
:10001000DF308600831290308B00861634208612E3
:1000200034200D28831286120E308E0032308D005F
:100030007D308C00831285153E2085113E208C0B6F
:100040001A288D0B182832308D007D308C008511D8
:100050003E2085113E208C0B27288D0B25288E0BEA
:10006000162890308B0009003D3081000630831641
:1000700081000B1D39280B1183120800DC30810030
:100080000030831681000B1D43280B1183120800DA
:00000001FF
